:020000040800F2
:100000000049002099010008A1010008A30100088F
:10001000A5010008A7010008A901000800000000D0
:1000200000000000000000000000000001010008C6
:10003000AD0100080000000045010008F1230008A0
:10004000B3010008B3010008B3010008B3010008C0
:10005000B3010008B3010008B3010008B3010008B0
:10006000B3010008B3010008B3010008B3010008A0
:10007000B3010008B3010008B3010008B301000890
:10008000B3010008B3010008B3010008B301000880
:10009000B3010008B3010008B3010008B301000870
:1000A000B3010008B3010008B3010008B301000860
:1000B000B3010008B3010008B3010008B301000850
:1000C000B3010008B3010008B3010008B301000840
:1000D000B301000861240008B3010008B30100085F
:1000E000B3010008B3010008B3010008DFF80CD029
:1000F00000F034FC0048004791320008004900201D
:10010000224B19680868B0E8F00F80F30988BFF344
:100110006F8F4FF0000080F311884EF00D0E704786
:100120000000000006480068006880F3088862B696
:1001300061B6BFF34F8FBFF36F8F00DF00BF00BF0B
:1001400008ED00E0EFF30980BFF36F8F0F4B1A68E3
:1001500020E9F00F106008B54FF0500080F31188CF
:10016000BFF34F8FBFF36F8F03F0D2FC4FF000004F
:1001700080F31188BDE8084019680868B0E8F00FFE
:1001800080F30988BFF36F8F704700BF80000020A5
:10019000EFF3058070470000064880470648004797
:1001A000FEE7FEE7FEE7FEE7FEE7FEE7FEE7FEE727
:1001B000FEE7FEE701240008ED000008D2B201E0EE
:1001C00000F8012B491EFBD270470022F6E710B55C
:1001D00013460A4604461946FFF7F0FF204610BDB5
:1001E0000246C9B200E0401C0378002BFBD102E0BC
:1001F00003788B4203D0401E9042F9D20020704712
:10020000F0B480EA0102D40F4200B2EB410F02D2F7
:100210000246084611464A0042D0C30DDDB2C1F382
:10022000C752AD1A202D35DAC1F3160141F4000290
:1002300004B15242C5F1200602FA06F12A411044E7
:10024000B3EBD05F23D0C4B1012DA0EBC35009DCC8
:10025000F0BC4FF0004202EAC352DBB200F50000EE
:1002600000F019BA400000F1807000EBC350A0F11B
:10027000807040EAD170490009E0490841EAC07144
:10028000A0EBC35000F50000400800EBC350F0BCE9
:1002900000F0F8B96142012202EB4101001BF6E7D0
:1002A000F0BC704781F00041AAE780F00040A7E76A
:1002B00080EA010210B502F00043400022D04A005B
:1002C0001FD0010E01EB1261C0F35600C2F35602BB
:1002D00040F4000042F40002A0FB022000047F3939
:1002E000140400D0401C50EA124001D44000491EC2
:1002F000C2B20C0604EBD010401C4008802A02D089
:1003000003E0002010BD20F00100002900DA0020E9
:10031000184310BD30B480EA010202F0004530F00D
:10032000004221F0004013D090B1C30DD40DC2F3B0
:100330001601C0F31600E41A41F4000140F4000273
:100340007D34914201D3641C00E04900002C02DAA4
:1003500030BC002070474FF400000023914201D3CD
:10036000891A034340084FEA4101F7D151B1914244
:1003700002D14FF0004105E002D24FF0010101E04F
:100380006FF0010103EBC450284430BC00F07AB98F
:100390002DE9FE4F81EA030404F0004421F00041FE
:1003A00000944FF0000B23F0004350EA01045ED0AC
:1003B00052EA03045BD0C3F30A54C1F30A552C4438
:1003C000A4F2F3340194A0FB0254C1F3130141F4ED
:1003D0008011C3F3130343F4801301FB024400FBB9
:1003E000034E840A970A44EA815447EA8357A4FBE0
:1003F000076802958D0A05FB07854FEA932C04FBDD
:100400000C542705029D4FEA065847EA1637B5EB0C
:1004100008056EEB070C870E920E47EA811742EA39
:100420008312A7FB0201B6EB0B0164EB00042B0D5A
:1004300043EA0C335E1844EB1C50DA465146E7FBA6
:100440000201C5F313044FEA0B3343EA14534FEA96
:100450000432019C43EA0603A4F10C040294009CBC
:10046000CDE900B400F054F903B0BDE8F08F0020EE
:100470000146F9E72DE9F04D81EA030404F0004B51
:1004800021F0004514464FF0000A23F0004150EAE5
:10049000050220D054EA01021DD0C5F30A570246D6
:1004A000C5F31303C1F31300C1F30A5640F48015DA
:1004B00043F48013A7EB0608101BD64608F2FD385C
:1004C00073EB050002D308F1010801E092185B41CB
:1004D000B8F1000F03DA00200146BDE8F08D0020DE
:1004E0004FF48011064684460EE0171B73EB050798
:1004F00005D3121B63EB050306434CEA010C4908C4
:100500004FEA300092185B4150EA0107EDD152EA00
:10051000030012D082EA040083EA0501084305D0F3
:10052000101BAB4106D20122002306E000224FF04F
:10053000004302E06FF0010253101AEB06004CEB8F
:10054000085110EB0A0041EB0B01BDE8F04D00F043
:10055000D0B896230022114600F09DB80EB5C10F09
:1005600080EAE0700844CA07002140F233438DE876
:100570000E000A460B4600F0CBF803B000BD0EB5E6
:1005800040F2334102910021CDE900110A460B46A9
:1005900000F0BEF803B000BD00F0004230F00040B3
:1005A0000AD0C10D01F56071C0F3160042EA015195
:1005B000C20840071143704700200146704701F010
:1005C000004330B421F0004150EA010206D00A0D88
:1005D000A2F56072C1F31301002A02DC30BC0020D6
:1005E0007047440F44EAC104C100E01830BC00EB7E
:1005F000C25000F047B830B50B460146002020221B
:10060000012409E021FA02F59D4205D303FA02F51F
:10061000491B04FA02F52844151EA2F10102F1DC7F
:1006200030BD2DE9F05F0546002092469B46884686
:100630000646814640241BE028464146474622465E
:1006400000F0ADF953465A46C01A914110D31146F5
:100650001846224600F094F92D1A67EB01084F4620
:1006600022460120002100F08BF917EB00094E41D2
:10067000201EA4F10104DFDC484631462A464346E9
:10068000BDE8F09F0029A8BF7047401C490008BF83
:1006900020F00100704710B4B0FA80FC00FA0CF0B2
:1006A00050EA010404BF10BC704749B1CCF12004EA
:1006B00021FA04F411FA0CF118BF01212143084377
:1006C000A3EB0C01CB1D4FEA00614FEA102042BFA3
:1006D000002010BC704700EBC35010440029A4BF99
:1006E00010BC7047401C490008BF20F0010010BC3E
:1006F000704710B5141E73F1000408DA401C41F174
:10070000000192185B411A4301D120F0010010BD95
:100710002DE9F04D92469B4611B1B1FA81F202E00B
:10072000B0FA80F22032904600F02AF904460F46D3
:1007300040EA0A0041EA0B0153465A46084313D0E7
:10074000114653EA010019D0C8F14002504600F0AA
:1007500026F905460E4650465946424600F010F925
:10076000084305D0012004E020463946BDE8F08D5D
:100770000020054346EAE0762C4337430A98630598
:10078000E40AA0EB08000022FD0A44EA47540A30BC
:1007900002D500200146E9E7010510196941DDE9AC
:1007A000084500196941BDE8F04DA2E72DE9FE4F6B
:1007B000804681EA0300C00F0C46009021F0004102
:1007C00023F00045B8EB0200A94105D2404621467E
:1007D00090461C460B46024623F00040104347D08B
:1007E000270DC7F30A00C3F30A510290401A019083
:1007F00040286BDAC3F3130040F4801B0098924644
:1008000020B10023D2EB030A63EB0B0B019859468E
:10081000C0F14002504600F0B3F806460D4650467F
:100820005946019A00F0CBF810EB08006141002412
:1008300087EA115284EAE7731A4340D0009A62B300
:10084000019A012A4FEA075215DC001B61EB0201F5
:100850004FF0004202EA0752CDE90042001C41F588
:10086000801132462B46FFF753FF03B0BDE8F08FEF
:1008700040462146F9E7001B61EB0201001C41F5EF
:10088000801300185B412018A2F5001747EB030105
:1008900040EAD570B6196D4111E06D084FEA360691
:1008A00045EAC0754FEA0752001B61EB0201001CCC
:1008B00041F5801149084FEA300000195141324694
:1008C0002B4603B0BDE8F04FFFF713BF009801229D
:1008D00040000023D0EB020263EBE0730098214656
:1008E0004FEAE074B8EB000061EB0401E9E783F044
:1008F00000435BE781F0004158E7C1F30A52C1F3BE
:10090000130140F2FF3341F480119A4202DA0020D1
:100910000146704740F233439A42A2F2334202DC6E
:10092000524200F03CB800F02BB8000030B5041E75
:1009300071F1000404DB4FF00044404264EB01011C
:10094000141E73F1000405DB1C464FF000435242B5
:1009500063EB0403994208BF904230BD064C074D3B
:1009600006E0E06840F0010394E80700984710347F
:10097000AC42F6D3FFF7BEFB805E0008A05E000825
:10098000202A04DB203A00FA02F10020704791404F
:10099000C2F1200320FA03F3194390407047202A44
:1009A00004DB203A21FA02F00021704721FA02F319
:1009B000D040C2F120029140084319467047202AD6
:1009C00006DBCB17203A41FA02F043EAE07306E077
:1009D00041FA02F3D040C2F1200291400843194687
:1009E000704770B521F0004303430CD0C1F30A55A2
:1009F0000024D5EB040564EB0403D617AD1AB3410C
:100A000002DB0020014670BD201841EB025170BD91
:100A100038B52C4801780078401C2A4A10701429F7
:100A200009D100F0A7FA0446FFF7C9FD264908607E
:100A300000202449087024480068FFF7ADFD0446F3
:100A400022460B4621A1244801F044FD2348B0F979
:100A5000002023A1254801F03DFD2548B0F90020E4
:100A600024A1274801F036FD26480068FFF794FDD1
:100A7000044622460B4624A1274801F02BFD012005
:100A80001023154A00210090084601F0C3FB012005
:100A90001023164A19460090002001F0BBFB0120EC
:100AA0001023174A20210090002001F0B3FB012001
:100AB0001023194A30210090002001F0ABFB01F017
:100AC000E5FA38BD24000020280000204261743A75
:100AD0002025342E31665600C80500201C00002059
:100AE0004C6566743A20253664000000D905002064
:100AF0001E00002052696768743A202536640000A1
:100B0000EA05002020000020416E676C653A202530
:100B1000342E316600000000FB05002010B501F006
:100B20005DF806490860002000F070FF0449088065
:100B3000012000F06BFF0349088010BD2000002059
:100B40001C0000201E00002008B501F0ADF903F0E4
:100B5000C1F8009005E0FFF75BFF3221684603F023
:100B60006FF8F8E708B503F0B5F8009005E0FFF777
:100B7000D5FF0A21684603F063F8F8E71CB5044680
:100B800002F0CAFE0C48012100238022CDE90010AA
:100B90000AA10D4803F020F80C480221002380220E
:100BA000CDE900100AA10D4803F016F8002002F06C
:100BB00007FF02F0C3FE1CBD1400002064697370BF
:100BC0006C61795461736B00490B000818000020B8
:100BD00073656E736F725461736B0000650B000870
:100BE0002DE9F04105460C46894801682046FFF78B
:100BF00059FB0746874801683846FFF759FB064608
:100C0000854801683046FFF7FBFA8349086083484E
:100C1000416883480068FFF745FB06467F488168C6
:100C20003046FFF73FFB7F4908607C48C06880F092
:100C3000004048607948C06880F0004088607A4889
:100C40000068C860086873490968FFF731FB064609
:100C5000724801683046FFF7D3FA7049086071495D
:100C600048686C490968FFF723FB06466B484168F2
:100C70003046FFF7C5FA694948606A49886865499E
:100C80000968FFF715FB0646644881683046FFF7A0
:100C9000B7FA624988606349C8685E490968FFF726
:100CA00007FB06465D48C1683046FFF7A9FA5B4975
:100CB000C860594801682846FFF7F4FA5B490860A4
:100CC0005B480078FFF745FC06465448016830460B
:100CD000FFF7EEFA5749086055480078FFF739FCEE
:100CE00006464E4881683046FFF7E2FA52490860EE
:100CF0004F480078FFF72DFC07464E4801683846FC
:100D0000FFF7D6FA06464D4801683046FFF778FAF5
:100D10004B4908600846016846480068FFF7FAFA40
:100D2000484908604648016843480068FFF7F2FAFE
:100D3000454908603F480068444908603C480078DD
:100D4000FFF707FC0646354841683046FFF7B0FA22
:100D50003F4908603D4801683A480068FFF7A8FA33
:100D600006462E4801683046FFF79FFA2B49086077
:100D70003748016833480068FFF79AFA0646274863
:100D800041683046FFF791FA244948602F480168CE
:100D90002D480068FFF78CFA0646204881683046E7
:100DA000FFF783FA1D4988602948016826480068D2
:100DB000FFF77EFA06461948C1683046FFF775FA14
:100DC0001649C860194801681E480068FFF770FAA4
:100DD0000646114801683046FFF712FA0E490860CE
:100DE0001248016818480068FFF762FA064608488A
:100DF00001683046FFF704FA0549086008460168B3
:100E00002046FFF74FFA13490860BDE8F081000063
:100E10004C00002044000020300000207000002022
:100E2000380000200C0600203C000020500000206C
:100E300048000020540000205800002040000020FE
:100E40005C0000206000002064000020680000209A
:100E50006C0000203400002010B54348806940F445
:100E60000070414988610846406840F4004048608D
:100E70000846406820F4804048603C48006820F004
:100E80000F003A4908603A48006820F47000384979
:100E9000086037480830006820F01F0034490831E6
:100EA00008600846006840F00100086030481C38BF
:100EB000006820F038002E491C3908600846006898
:100EC00020F0200008600846006840F0100008602C
:100ED0000846006820F008000860254828380068A7
:100EE00020F48070224928390860081D006820F02D
:100EF0000200091D08600846006820F400600860D0
:100F00000846006840F4801008600846006840F415
:100F1000602008600846006840F001000860012079
:100F200002F0A0F912482438006840F0040010498B
:100F30002439086000BF0E482438006800F004001F
:100F40000028F8D10A482438006840F48000084995
:100F50002439086000BF06482C38006800F0020001
:100F60000028F8D010BD0000001002400008014029
:100F70002C2401402DE9FC471648006840F480000D
:100F80001449086000BF13480838006800F00200E8
:100F90000028F8D00F48443000681FFA80FA504605
:100FA000FFF7EDFA06464FF066320B4BFFF7F0F90C
:100FB00080460022094BFFF75DFA0022084BCDE97D
:100FC0000001FFF7E5F904460D4620462946BDE835
:100FD000FC8700000824014066660A4000FEAF401E
:100FE000000010400348008820F480600149088018
:100FF00070470000005800400348008840F48060BB
:1010000001490880704700000058004003480088EC
:1010100040F400700149088070470000005800400B
:101020002048806940F008001E4988610846C06970
:1010300040F48000C8611C48006840F470401A49C0
:1010400008600846006840F470600860174800882F
:1010500020F0020015490880081D008840F0240097
:10106000091D088011481C30008820F400400F49F9
:101070001C3108800846008840F0B4000880081D34
:10108000008820F03F00091D08800846008840F0D5
:10109000250008800548008840F0010003490880C9
:1010A0007047000000100240040C0140005800404E
:1010B00070B54FF6FF7401E0601E84B214480088DA
:1010C00000F0400008B9002CF6DC002C1AD100BF5B
:1010D0005C2110A0FFF784F828B15C210DA0FFF778
:1010E0007FF8401C00E00BA00546722229460DA0A7
:1010F00001F0E0F9214611A001F0DCF91CA001F09B
:10110000D9F900BF0248001F0088C0B270BD0000BE
:10111000145800404472695C4472695F4932432E3E
:10112000630000001B5B303B33316D0D0A5B4552A1
:10113000524F522025733A25645D20004472695F46
:101140004932435F5265636569766542797465200B
:10115000776169742052584E452074696D656F75CA
:10116000742C2074696D656F7574203D20256400B2
:101170001B5B306D0D0A000070B504464FF6FF751D
:101180001648048001E0681E85B21448001D0088DE
:1011900000F0020008B9002DF5DC002D1AD100BFC7
:1011A0005C210FA0FFF71CF828B15C210CA0FFF711
:1011B00017F8401C00E00AA00646402231460CA069
:1011C00001F078F9214610A001F074F917A001F0A0
:1011D00071F900BF01480830008870BD1058004008
:1011E0004472695C4472695F4932432E63000000B7
:1011F0001B5B303B33316D0D0A5B4552524F522021
:1012000025733A25645D20004472695F4932435F6B
:1012100053656E64416464722074696D656F7574A2
:101220002C2061646472203D202564001B5B306DBE
:101230000D0A000070B505464FF6FF7401E0601E10
:1012400084B22848008800F0800008B9002CF6DC41
:10125000002C1AD100BF5C2123A0FEF7C1FF28B1EA
:101260005C2121A0FEF7BCFF401C00E01EA006464A
:101270004E22314620A001F01DF9294624A001F09C
:1012800019F92FA001F016F900BF1648001F0580BC
:101290004FF6FF7401E0601E84B21248008800F02F
:1012A000040008B9002CF6DC002C1AD100BF5C2128
:1012B0000DA0FEF795FF28B15C210BA0FEF790FF73
:1012C000401C00E008A00646592231460AA001F061
:1012D000F1F829461CA001F0EDF819A001F0EAF898
:1012E00000BF70BD145800404472695C4472695F6D
:1012F0004932432E630000001B5B303B33316D0DE0
:101300000A5B4552524F522025733A25645D2000F6
:101310004472695F4932435F53656E644279746514
:101320002077616974205458452074696D656F7524
:10133000742C2064617461203D202564000000004D
:101340001B5B306D0D0A00004472695F4932435FD8
:1013500053656E64427974652077616974204254E4
:10136000462074696D656F75742C2064617461200A
:101370003D2025640000000070B51848008840F446
:101380008070164908804FF6FF7401E0601E84B239
:1013900012481430008800F0010008B9002CF5DC78
:1013A000002C1AD100BF5C210DA0FEF719FF28B157
:1013B0005C210BA0FEF714FF401C00E008A00546CE
:1013C000322229460AA001F075F821460EA001F04C
:1013D00071F816A001F06EF800BF70BD0058004013
:1013E0004472695C4472695F4932432E63000000B5
:1013F0001B5B303B33316D0D0A5B4552524F52201F
:1014000025733A25645D20004472695F4932435F69
:1014100053746172742074696D656F75742C2074D7
:10142000696D656F7574203D202564001B5B306D10
:101430000D0A000070B54FF6FF7401E0601E84B223
:101440001548008800F0800008B9002CF6DC002C5C
:1014500019D100BF5C2111A0FEF7C2FE28B15C21AA
:101460000EA0FEF7BDFE401C00E00CA00546652264
:1014700029460EA001F01EF812A001F01BF81AA0D8
:1014800001F018F800BF04481438008840F40070D8
:1014900001491439088070BD145800404472695CD9
:1014A0004472695F4932432E630000001B5B303B8E
:1014B00033316D0D0A5B4552524F522025733A2548
:1014C000645D20004472695F4932435F53746F70FA
:1014D0003453656E642077616974205458452074D4
:1014E000696D656F757400001B5B306D0D0A00003F
:1014F0001948806940F0040017498861174800685E
:1015000040F44030154908600846006820F4402047
:1015100008600846006840F440100860084600680B
:1015200020F4400008600846006840F04050086021
:101530000846006820F04040086008480C30006809
:1015400040F0100005490C3108600846006820F0A2
:1015500020000860704700000010024000080140B1
:101560001749096821F01001154A116000211EE099
:10157000134A126822F02002114B1A6000F0800218
:101580002AB11A46126842F080021A6005E00C4A3D
:10159000126822F080020A4B1A604206100E084AB6
:1015A000126842F02002064B1A604A1CD1B2082988
:1015B000DEDB0349096841F01001014A1160704700
:1015C0000C0801405D48C06940F003005B49C861F8
:1015D0000846806940F00D0088615948406840F431
:1015E0004070574948600846406840F400604860D1
:1015F0000846406820F0807048600846406840F027
:10160000007048600846406820F0806048604D489F
:10161000006820F040504B4908600846006820F000
:10162000004008600846006840F080400860464876
:101630000068464908404449086008460068444933
:1016400008404149086008460068424908433E494D
:10165000086000204FF0804108854FF6FE708885B5
:1016600000203D4908804FF6FE70091D08804FF0AC
:101670008040008B40F20111084389070883084627
:10168000008B40F202218843490708830846008CFA
:1016900020F0020008840846008C20F02000088416
:1016A0000846008940F0010008810846008940F0A2
:1016B000020008810846008920F0040008812648BD
:1016C0001038008840F2011108432349103908807E
:1016D0000846008840F2022188431F4910390880DB
:1016E0001D480838008840F002001B49083908806E
:1016F0000846008820F0200008801748203800881D
:1017000040F001001449203908800846008840F064
:10171000020008800846008820F004000880C806FF
:10172000008840F00100C90608800B48283800886E
:1017300040F0010008492839088070470010024035
:101740000000014004080140000C0140FFCFCCFF25
:10175000FF7F77FF0040440028040040474880692D
:1017600040F00800454988610846C06940F004001F
:10177000C8614348006840F00300414908600846DA
:10178000006840F0080008600846006820F0040087
:1017900008600846006840F03000086008460068AD
:1017A00040F0800008600846006820F040000860B3
:1017B00000203449088041F61F40091D0880314847
:1017C0002838008820F010002E4928390880002091
:1017D0002C49143108802B480838008820F4007008
:1017E000284908390880081F008820F00300091FD5
:1017F00008800846008840F04000088008460088BD
:1018000040F0200008800846008820F01000088082
:10181000081D008840F48070091D088000201949C7
:101820001831088017480838008820F400501549FE
:1018300008390880081F008820F44070091F0880BC
:101840000846008840F4804008800846008840F43C
:10185000005008800846008820F480500880081D49
:10186000008840F48050091D088006482838008808
:1018700040F00100034928390880704700100240F9
:10188000040C01402808004010B54448806940F02D
:101890000400424988610846806940F0010088617F
:1018A0000846806940F4804088613D48006840F007
:1018B00030003B4908600846006840F0800008603E
:1018C0000846006820F0400008600846006820F4E0
:1018D000407008600846006820F400600860084610
:1018E000006840F4806008602E48406820F00400E2
:1018F0002C4948602C4800884FF6F07188432A49EB
:1019000008800846008820F00F00088008460088FC
:1019100040F27121084324490880081D008820F402
:101920008050091D08800846008820F480600880E7
:10193000081D008820F44050091D0880081F0088F9
:1019400042F20C0108431849091D08800846008826
:1019500040F0200008800846008840F01000088011
:1019600025200121002807DA0A07140E0F4A00F08B
:101970000F031B1FD45403E00A07130E0C4A135421
:1019800000BF252000F01F02012191404209920072
:1019900002F1E022C2F8001100BF10BD00100240A9
:1019A00004080140000001400838014018ED00E043
:1019B00000E400E07047000000BF0549098801F01D
:1019C00080010029F9D00249091D088070470000F4
:1019D000003801401CB50648012100238022CDE9D2
:1019E000001004A1064802F0F7F802F053F81CBDFD
:1019F0001000002073746172745461736B000000F6
:101A00007D0B000810B5FFF7DDFD10BD014600207D
:101A100011B1012910D108E04FF08042928C10B230
:101A200000224FF080439A8406E0044A128810B2E4
:101A30000022024B1A8000BF00BF70472404004000
:101A400070B5FFF7EDFA80216B2000F081F964207A
:101A500001F008FC00216B2000F07AF9642000F00E
:101A600005FA18211B2000F073F900211C2000F05A
:101A70006FF90021232000F06BF90021382000F0DD
:101A800067F900216A2000F063F9752000F000F981
:101A90000446682C1BD000BF5C211DA0FEF7A0FBF4
:101AA00028B15C211AA0FEF79BFB401C00E018A0A7
:101AB00005462B2229461BA000F0FCFC21461FA056
:101AC00000F0F8FC26A000F0F5FC00BF70BD092175
:101AD0006B2000F03DF900BF5C210DA0FEF780FBFC
:101AE00028B15C210AA0FEF77BFB401C00E008A0A7
:101AF0000546312229461CA000F0DCFC20A000F0A5
:101B0000D9FC17A000F0D6FC00BF00BFDEE7000044
:101B1000496E745C496E745F4D5055363035302EC9
:101B2000630000001B5B303B33316D0D0A5B455297
:101B3000524F522025733A25645D2000756E6D6109
:101B40007463686564204D505536303530206465C7
:101B5000766963652049443A203078253032580050
:101B60001B5B306D0D0A00001B5B313B33366D0D86
:101B70000A5B44454255472025733A25645D2000A1
:101B8000496E745F4D5055363035305F496E69741B
:101B900020646F6E650000007CB506460C46154655
:101BA000062269463B2000F08BF89DF801009DF865
:101BB000001040EA012000B230809DF803009DF83B
:101BC000021040EA012000B220809DF805009DF837
:101BD000041040EA012000B228807CBD2DE9FF5F9F
:101BE000204A21492148FFF7D7FF214A21492248AD
:101BF00000F08CF81B48B0F90000FEF7AFFCCDE90F
:101C000000011A48B0F90000FEF7A8FC8046DDE9A3
:101C1000002301F067FA06460022184BFEF7B8FBD6
:101C20000446174A174BFEF725FC8246FEF7C7FC11
:101C300003901048B0F900004042FEF78FFC0646C2
:101C40004FF06632104BFEF715FC0446FEF7B7FC6A
:101C50000290DDE90210FEF7C3FF0C48006804B0F3
:101C6000BDE8F09F060000200400002002000020D4
:101C70000C0000200A0000200800002000806640C0
:101C80006F1283C0CA2109406666304030000020D0
:101C900010B50446FFF770FBD020FFF76DFA204621
:101CA000FFF7C8FAFFF768FBD120FFF765FAFFF7E7
:101CB000A3F9FFF797F9FFF7A9F9FFF7F9F910BDB5
:101CC0002DE9F04107460E461546FFF755FBD0209B
:101CD000FFF752FA3846FFF7ADFAFFF74DFBD12078
:101CE000FFF74AFAFFF788F900240BE0681EA042CC
:101CF00003D1FFF777F9FFF789F9FFF7D9F93055E5
:101D0000601C84B2AC42F1DBBDE8F0817CB50646D4
:101D10000C461546062269464320FFF7D1FF9DF881
:101D200001009DF8001040EA012000B230809DF8CB
:101D300003009DF8021040EA012000B220809DF8C7
:101D400005009DF8041040EA012000B228807CBD07
:101D500073B50446012201A9204600F04FF800BFE8
:101D60005C210EA0FEF73CFA28B15C210BA0FEF727
:101D700037FA401C00E009A00546592229460CA06C
:101D800000F098FB9DF8042021460FA000F092FB84
:101D900018A000F08FFB00BF7CBD0000496E745C92
:101DA000496E745F4D5055363035302E630000005B
:101DB0001B5B313B33366D0D0A5B44454255472072
:101DC00025733A25645D2000496E745F4D50553689
:101DD0003035305F53656E64427974652072656793
:101DE000203D202523782C2062797465203D202514
:101DF000237800001B5B306D0D0A00002DE9F041D7
:101E000007460D461646FFF7B7FAD020FFF7B4F99C
:101E10003846FFF70FFA002404E0285DFFF70AFABE
:101E2000601C84B2B442F8DBFFF704FBBDE8F0812C
:101E300070B50546BC2D01DB012412E0622D01DBEB
:101E400002240EE02A2D01DB03240AE0142D01DB1D
:101E5000042406E00A2D01DB052402E0052D00DB49
:101E6000062421461A20FFF773FF70BD70B50446A3
:101E7000042C01DA042404E0B4F57A7F01DD4FF488
:101E80007A744FF47A7090FBF4F0401EC5B2294684
:101E90001920FFF75DFF264604EBD671C1F34F0012
:101EA000FFF7C6FF70BD000070B500240CE00025F0
:101EB00006E00020074901EBC5010855681CC5B2C2
:101EC000802DF6DB601CC4B2082CF0DB00F0DEF8DD
:101ED00070BD000048010020F0B514460B46CF1736
:101EE00001EB5777C7F3C702CF1701EB5777FF1006
:101EF000A1EBC707FEB20123B340DDB24CB1134BD7
:101F000003EBC0039B5C2B43104F07EBC007BB5494
:101F10001AE00E4B03EBC0039B5CDB430B4F07EB5C
:101F2000C007BB54094B03EBC0039B5C2B43074F1B
:101F300007EBC007BB54054B03EBC0039B5CDB43C3
:101F4000024F07EBC007BB54F0BD00004801002062
:101F500010B5FFF7CDFA4B48806940F008004949B9
:101F600088614948006840F03300474908600846E6
:101F7000006820F0CC00086043480C30006820F076
:101F8000010041490C310860C82001F06BF93E485E
:101F90000C30006840F001003B490C310860002122
:101FA000AE2000F05DF90021084600F059F900214B
:101FB000102000F055F90021402000F051F90021D7
:101FC000812000F04DF90021CF2000F049F90021D7
:101FD000A12000F045F90021C82000F041F90021BE
:101FE000A62000F03DF90021A82000F039F90021D9
:101FF0003F2000F035F90021D32000F031F9002115
:10200000084600F02DF90021D52000F029F9002123
:10201000802000F025F90021D92000F021F90021CD
:10202000F12000F01DF90021DA2000F019F900215B
:10203000122000F015F90021DB2000F011F9002139
:10204000402000F00DF90021202000F009F90021C6
:10205000022000F005F900218D2000F001F9002197
:10206000142000F0FDF80021A42000F0F9F8002170
:10207000A62000F0F5F8FFF717FF0021AF2000F0D1
:10208000EFF810BD00100240000C014070B50024B4
:102090001CE004F1B001C8B2002100F0E1F8002119
:1020A000084600F0DDF80021102000F0D9F80025E6
:1020B00008E0084901EBC501085D012100F0D0F8F6
:1020C000681CC5B2802DF4DB601CC4B2082CE0DBB8
:1020D00070BD0000480100202DE9FE4F07468846EC
:1020E00092461C460197CDF80080082C02D14FF093
:1020F00006091FE02046E31704EB5373DB1021466B
:102100004FEAE47C04EB5C7C4FEAEC0CA4EBCC0CD7
:10211000BCF1000F02D04FF0010C01E04FF0000CB9
:102120006344224604EBD27C4FEA6C0C03FB0CF3B5
:1021300003F0FF09AAF12000C6B200255EE0082CDA
:1021400007D106EB46002F4901EB400010F805B01F
:102150001DE00C2C07D106EB46002B4901EB80005B
:1021600010F805B013E0102C05D1284800EB06103C
:1021700010F805B00BE0182C07D106EBC600244977
:1021800001EB800010F805B001E0BDE8FE8F0020F3
:1021900002901CE00BF0010028B1414638460C9A31
:1021A000FFF79AFE09E00C9808B9012000E0002032
:1021B000024641463846FFF78FFE4FEA6B0B08F1A7
:1021C000010000F0FF080298401CC0B20290029883
:1021D0000828DFDB781CC7B2082C0BD004EBD471C5
:1021E0004A100199791A8A4204D1019F0098083057
:1021F000C0B20090DDF80080681CC5B24D459EDB82
:1022000000BFC2E7CC3F0008F44100086846000860
:10221000584C00082DE9F84106460F4614461D4665
:10222000DDF81C8013E0CDF8008022782B4639467B
:102230003046FFF751FF082D02D1B01DC6B205E0B0
:10224000284605EBD07106EB6101CEB2641C207804
:10225000202802DB20787E28E5DDBDE8F88100003B
:1022600070B505460C4634B10B48006840F00200DA
:102270000949086005E00848006820F002000649A6
:1022800008602846FFF76CF90348006840F0020038
:102290000149086070BD00000C0C014010B5FFF74B
:1022A0005DFA1548806940F00800134988611348B9
:1022B000006813490843114908600846006811493D
:1022C00008400E4908600D480830006820F480403E
:1022D0000A49083108600846006820F40040086098
:1022E0000846006820F4005008600846006820F4A2
:1022F0008050086010BD000000100240040C014036
:1023000000003333FFFF333310B500F001F810BD88
:102310000CB50020019000903348006840F48030F4
:102320003149086000BF3048006800F40030009078
:102330000198401C0190009818B90198B0F5A06F61
:10234000F1D12948006800F4003010B1012000905C
:1023500001E0002000900098012843D12348006844
:1023600040F01000214908600846006820F007008E
:1023700008600846006840F0020008601A4840689B
:10238000194948600846406848600846406840F47B
:10239000806048600846406820F47C104860084629
:1023A000406840F4E81048600846006840F08070DB
:1023B000086000BF0C48006800F000700028F9D0E9
:1023C0000948406820F00300074948600846406813
:1023D00040F00200486000BF0348406800F00C0075
:1023E0000828F9D10CBD0000001002400020024076
:1023F00010B501F05FFC012801D001F0D3FB10BD46
:1024000010B51348006840F0010011490860084603
:102410004068104908400E494860084600680E4967
:1024200008400B4908600846006820F480200860D6
:102430000846406820F4FE0048604FF41F008860A2
:10244000FFF762FF4FF000600449086010BD000014
:10245000001002400000FFF8FFFFF6FE08ED00E06C
:1024600010B51148008800F0200058B10E48001D3A
:102470000088C1B20D4802780078401C0B4B1870E0
:102480000B4881540848008800F0100050B10648FD
:10249000001D0088054801780548FFF78BFA0020E9
:1024A0000249087010BD0000003801400000002003
:1024B000E40000200FB4054B10B503A9044A0298AC
:1024C00000F064F910BC5DF814FB000081320008D4
:1024D000E00000200FB4084B10B504A902AA03982D
:1024E00000F054F9044602A9002000F0E6FC204662
:1024F00010BC5DF814FB0000BB2E0008490050EA38
:10250000C12018BF04204A0D18BF40F0010040F25E
:10251000FF72B2EB515F08BF40F00200012808BF14
:10252000052070472DE9F0414F1E00EBC70104461E
:10253000D1E9000115461E4637F006020DD02A46A5
:102540003346FDF725FF7F1E04EBC703D3E90023C5
:10255000FEF72CF937F00602F1D1022F25D0042F17
:1025600013D0062F18BFBDE8F0812A463346FDF789
:102570000FFFD4E90A23FEF719F92A463346FDF77F
:1025800007FFD4E90823FEF711F92A463346FDF781
:10259000FFFED4E90623FEF709F92A463346FDF784
:1025A000F7FED4E90423FEF701F92A463346FDF786
:1025B000EFFED4E90223FEF7F9F82A463346FDF789
:1025C000E7FED4E90023BDE8F041FEF7EFB80122B1
:1025D000FEF707BAFEF7EAB8024A00201107FEF735
:1025E00000BA000001FDFFFF02E008C8121F08C189
:1025F000002AFAD170477047002001E001C1121F84
:10260000002AFBD1704700002DE9FF5F82B0002156
:10261000DDE90430020DDDF840B0034318D044F684
:102620001050A2F2FF3242431514119801281FD016
:10263000A5EB0B00401C5FEA000A4FF000064E4F6E
:10264000DFF83891B046504615D5CAF1000413E0C2
:10265000119801244AA3012801D16FEA0B010298C5
:10266000119AC0E90031C0E9024206B0BDE8F09F0E
:10267000CBF10000DFE704460021404A491842EB55
:102680000450CDE9001012E0E00707D032463B4687
:1026900040464946FDF77CFE8046894632463B4629
:1026A00010461946FDF774FE06460F466410002CCE
:1026B000EAD1DDE90401DDE90023BAF1000F06DA11
:1026C000FDF766FE42464B46FDF762FE05E0FDF76C
:1026D000D1FE42464B46FDF7CDFE04460E46002293
:1026E000284BFEF723F903D84FF0FF30014607E0EF
:1026F0000022254B20463146FEF758F8FEF7FDF83C
:10270000102409E0002C0ADB0A220023FDF789FFD0
:10271000039B30321A55641E50EA0102F2D1641C48
:10272000039AC4F111031444119A012A03D001221F
:1027300008430DD10AE0084304D000204FF0110BEC
:10274000119072E7A3EB0B056D1E0DE05B4504DDF8
:102750004FF0000205F1010504E003DA4FF000023A
:10276000A5F10105002AECD002981199C0E90231C7
:10277000C0E9004579E70000000014400000F03F88
:10278000300000000000F0430000E03F2DE9FF4F63
:1027900095B09B468946064600250FE2252877D14D
:1027A00000242746F84A0121059400E0044316F866
:1027B000013F203B01FA03F01042F7D130782A287C
:1027C00011D06FF02F033078A0F13002092A16D80B
:1027D000059A44F0020402EB820203EB4202104429
:1027E000761C0590EFE759F8042B0592002A03DACE
:1027F000504244F40054059044F00204761C3078B2
:102800002E2816D116F8010F44F004042A280DD002
:102810006FF02F023078A0F13003092B09D807EBB5
:10282000870302EB4303C718761CF3E759F8047BD0
:10283000761C30786C280FD006DC4C2817D068281E
:102840000DD06A2814D104E0742810D07A280FD152
:102850000DE044F400140AE044F4801401E044F470
:1028600040147278824202D104F58014761C761CE2
:10287000307866280BD013DC582877D009DC002884
:1028800075D04528F6D04628F4D047281AD19DE1C6
:1028900018E0632835D0642879D0652812D195E1F5
:1028A000702873D008DC6728F1D069286FD06E28B3
:1028B0000DD06F2806D1B5E073282CD0752875D0BF
:1028C000782874D05A46179990476D1C75E1C4F367
:1028D0000250022809D003280DD0D9F8001004288E
:1028E0000DD00D6009F1040967E1D9F80010EA176D
:1028F000C1E90052F6E7D9F800100D80F2E70D703B
:10290000F0E719F8041B8DF8001000208DF8010085
:10291000EA46012003E059F804AB4FF0FF306107AD
:102920004FF0000102D40DE008F101018846B942E0
:102930000FDA8045F8DB1AF808100029F4D108E016
:1029400008F1010188468142FADB1AF808100029D3
:10295000F6D105985B46A0EB080721463846179A42
:1029600000F094FA284400EB080507E04DE029E167
:102970000DE01AF8010B5A4617999047B8F1010873
:10298000F7D25B4621463846179A13E142E00A2205
:102990000092C4F302524FF0000A022A08D059F8FC
:1029A00004CB032A4FEAEC710AD00DE029E02AE0BB
:1029B00009F1070121F00702F2E802C1914609E09E
:1029C0000FFA8CFC4FEAEC71042A03D14FFA8CFC0D
:1029D0004FEAEC71002907DA0A460021DCF1000C0D
:1029E00061EB02012D2202E0220504D52B228DF895
:1029F0000420012203E0E20701D02022F7E79046FD
:102A000059E00A2102E010220DE010214FF0000AE7
:102A100000910BE010224FF0000A44F00404082754
:102A2000009203E008224FF0000A0092C4F3025221
:102A3000022A05D059F804CB0021032A08D009E066
:102A400009F1070121F00702F2E802C1914605E011
:102A50001FFA8CFC042A01D10CF0FF0C4FF0000887
:102A6000220728D5702806D0009B83F0100353EA74
:102A70000A0305D00EE040228DF80420012208E070
:102A80005CEA010206D030228DF804208DF80500A2
:102A900002229046009B83F0080353EA0A030AD1FE
:102AA0005CEA010201D1620705D530228DF80420CD
:102AB0004FF001087F1E582804D034A003900EA8C0
:102AC00002900DE036A0F9E753466046009AFDF704
:102AD000A8FD84460398825C0298401E0290027012
:102AE0005CEA0100F0D1029806A9081A00F1200A58
:102AF000600702D524F4803400E00127574502DD49
:102B0000A7EB0A0000E0002000EB0A010090059806
:102B10004144401A0590E00306D45B462146179ACB
:102B2000059800F0B3F90544002706E001A85A46CD
:102B3000C05D179990476D1C7F1C4745F6DBE0038D
:102B40000CD55B462146179A059800F09FF905447D
:102B500004E030205A46179990476D1C0099481E92
:102B600000900029F5DC08E0029802995A460078A6
:102B7000491C0291179990476D1CBAF10001AAF106
:102B8000010AF1DC65E1000009280100303132332F
:102B90003435363738396162636465660000000099
:102BA0003031323334353637383941424344454683
:102BB0000000000000F058F90544761C3078002829
:102BC0007FF4ECAD19B02846BDE8F08F620700D461
:102BD000062709F1070222F0070CFCE80223E14670
:102BE00003F000485FEA080C02D00FF2702C0DE0F1
:102BF0005FEA045C02D50FF2682C07E05FEAC47C50
:102C000002D00FF2602C01E0AFF2700C4FF0FF38F1
:102C100023F00043CDF850C065280CD006DC4528D1
:102C200009D046281DD047283DD13DE0662818D060
:102C300067287ED138E00021112F01DB112000E050
:102C4000781CCDE9000106A90EA8FFF7DDFCDDE93F
:102C50000F010E9A03910021009207F1010A0491DD
:102C60004DE04FF000400097CDE9011006A90EA8F5
:102C7000FFF7CAFCDDE90F0203920E9B11990022B7
:102C8000DDF80CA00093049211B9791C00EB010A45
:102C9000B7EB0A0004D4C0F1FF3007F1010A049039
:102CA000AAEB0700019044E0012F00DA0127002180
:102CB000112F01DD112000E03846CDE9000106A901
:102CC0000EA8FFF7A1FCDDE90F010E9A0391002188
:102CD00004910092BA4621070CD40399514500DAB9
:102CE0008A46BAF1010F05DD009AAAF10101515C93
:102CF000302908D0B84202DA10F1040F06DA0121B7
:102D0000CDE9011015E0AAF10101E9E7002805DC91
:102D1000049901440491AAEB000102E0411C5145D1
:102D200000DD8A460499401A401C01904FF0004093
:102D30000290200704D40198504501DBCDF80480AF
:102D400000208DF84F0002980DF14F07B0F1004FB1
:102D500025D02B200E9002984FF0020800280CDAA4
:102D6000404202902D200E9007E00A210298FDF7C4
:102D700042FC3031029007F8011DB8F10001A8F1C2
:102D80000108F2DC02980028EFD1791E0E98087035
:102D9000307800F0200040F0450007F8020D12A83E
:102DA000C01B00F107081498007800B1012000EB67
:102DB0000A01019801EBE07105984144401A401E58
:102DC0000590E00306D45B462146179A059800F06B
:102DD0005DF805441498007818B15A461799904741
:102DE0006D1CE00324D55B462146179A059800F038
:102DF0004DF805441CE00498002807DBDDE90301D9
:102E0000884203DD0098405C179901E01799302053
:102E10005A469047049805F10105401C049001981A
:102E2000401E019004D12E205A46179990476D1CE0
:102E3000BAF10001AAF1010ADDDC05E017F8010B87
:102E40005A46179990476D1CB8F10001A8F1010886
:102E5000F4DC5B462146179A0598ABE62D0000008E
:102E60002B000000200000002DE9F0410446002561
:102E70001E461746880404D405E039462020B04792
:102E80006D1C641EF9D52846BDE8F0812DE9F0419E
:102E9000044600251E469046C80301D5302700E0B1
:102EA0002027880404D505E041463846B0476D1C0C
:102EB000641EF9D52846BDE8F0810A68531C0B60F2
:102EC000107070472DE9F84F04460D4621F0004080
:102ED00000917349814211DC7249884201DC06D1BC
:102EE0002CB120462946BDE8F84FFFF770BB6E486D
:102EF000002DCCBF6D496E49BDE8F88F6D49814208
:102F000011DD6D498142D8BF4FF0FF366DDD20469F
:102F10002946FFF7F3FA042808BFFFF75DFB2046B8
:102F20002946BDE8F88F6549654F25F00045814287
:102F300033DD6449814219DD002632464FF080437B
:102F400020462946FDF732FC80468A46012220466B
:102F50002946FDF746FD00223B46FDF7C8FC4246E8
:102F60005346FDF787FA04460D463EE0012600224F
:102F7000BA463B4620462946FDF718FC80460F46D8
:102F80000022534620462946FDF7B1FC42463B4607
:102F9000FDF770FA04460D4627E04B4981421BDDE0
:102FA000DFF828A102260022534620462946FDF7D5
:102FB000EFF900223B46FDF7F9FB80460F46002261
:102FC000534620462946FDF792FC42463B46FDF714
:102FD00051FA04460D4608E0032622462B460020FF
:102FE0003B49FDF747FA04460D4622462B4610465C
:102FF0001946FDF7CDF98B46824602460B46FDF792
:10300000C7F907460246334888460B4606217844EE
:10301000FFF788FA52465B46FDF7BAF982462E481A
:103020008B463A46434605217844FFF77BFA3A46F9
:103030004346FDF7ADF902460B46002E5046594671
:103040000CDAFDF7B3FB22462B46FDF7A1F901B0E0
:1030500022462B46BDE8F04FFDF74CBCFDF7A6FB22
:1030600022462B46FDF794F91C4A7A4402EBC6032C
:10307000D3E90023FDF73BFC22462B46FDF737FC46
:10308000174A7A4402EBC603D3E90023FDF732FC6A
:10309000009A002AB8BF81F00041BDE8F88F000017
:1030A000000010440000F07F182D4454FB21F93F2C
:1030B000FB21F9BF0000DC3F0000203E0000F33F91
:1030C0000000F03F0000E63F008003400000F83FB2
:1030D0000000F0BF362E0000F42D0000922D0000FD
:1030E0005A2D00002DE9F04D9446CCF1000423F058
:1030F00000464CEA0404524F46EAD4749A46884685
:1031000021F00042BC4206D8454240EA050442EAAA
:10311000D474BC4204D9BDE8F04D6246FFF75ABAF8
:10312000AAF14055A5F17F6555EA0C040BD00224A5
:1031300004EAAA74434DDFF810E144EAD87452EA75
:10314000000B04D00CE0BDE8F04DFFF7BBBE002C37
:1031500014BF012CBDE8F08D022C30D0032C32D0EE
:1031600056EA0C0B0AD0BE4220D1BA4209D126F051
:10317000804622F080423346114617E000291ADBD0
:1031800025E0DFF8C8B0FB44002C04BFDBE90001F8
:10319000BDE8F08D012C02BFDBE9000181F00041A8
:1031A000BDE8F08D022C0AD0032C0CD0BA4212D10B
:1031B000B8F1000F0BDA23482549BDE8F08D284609
:1031C0002449BDE8F08D28467146BDE8F08D1D48C4
:1031D0002149BDE8F08D921B12153C2AC4BF194845
:1031E0001D490EDCBAF1000FBEBF12F13C0F0020EA
:1031F000014606DB6246FDF73DF921F00041FFF78D
:1032000061FE002C08BFBDE8F08D012C04BF81F0E9
:103210000041BDE8F08D114A114B022C07D0FDF79B
:1032200066FB2A46BDE8F04D0A4BFDF760BBFDF793
:103230005EFB2A46BDE8F04D064BFDF75BBB000088
:103240000000F07F182D4454FB2109C0EE2C000033
:10325000FB21F9BFFB210940FB21F93F075C143337
:1032600026A6A13C054A42430923B2FBF3F100BF65
:1032700000BF0A1EA1F10101FAD1704740190100F7
:1032800000B502460B46D0B2FEF796FB104600BDD5
:10329000032002461B4B19684FF6FF0319401A4BD7
:1032A0000B4343EA0221174B196000BFFEF7ECFA0B
:1032B000FDF7D2FDFEF74CFEFEF7F0FFFEF7A2FB96
:1032C000FEF7BEFB00BF5C2110A0FCF789FF28B110
:1032D0005C210EA0FCF784FF401C00E00BA004461C
:1032E000182221460CA0FFF7E5F80422114610A091
:1032F000FFF7E0F814A0FFF7DDF800BFFEF76AFB68
:1033000000BFFEE70CED00E00000FA0555736572A2
:103310005C6D61696E2E63001B5B313B33366D0D56
:103320000A5B44454255472025733A25645D2000D9
:103330006D61696E20737461727465642C202564FC
:103340002C202564000000001B5B306D0D0A00007E
:103350002DE9F04105460E462648076826480068D4
:10336000001D00F08FFA50B92348006890F82C1027
:103370000120884021490968814320480160681C78
:10338000D8B9D6B11E4948681B49096888601A49EE
:1033900082680968CA6018490968091D8268516015
:1033A00015490968091D8160154A134909684A6170
:1033B00011460968491C11601AE07C190E48006822
:1033C0004460BC4207D20C480168091D0D480068E2
:1033D00000F07CFA0CE008480168091D0A48006802
:1033E00000F074FA09480068844201D2074804607A
:1033F000BDE8F081940000208000002098000020AB
:10340000EC0800208800002084000020B00000208C
:1034100010B5044600F080FA2F480068401C2E4981
:1034200008602E48006840B92C48046008460068CF
:1034300001280DD100F016F90AE02948006838B9D2
:1034400026480068C06AE16A884201D823480460BF
:1034500024480068401C2349086094F82C1001207F
:1034600088402149096808431F490860E16A01EB67
:1034700081011E4A02EB81014868A0608268E26017
:10348000211D826851608160E16A01EB8101174A68
:1034900002EB81026261E16A01EB8101134A52F899
:1034A0002110491CE26A02EB8202104B43F8221001
:1034B00000F044FA0A48006868B108480068C06A29
:1034C000E16A884207D24FF0805009490860BFF393
:1034D0004F8FBFF36F8F10BD900000208000002041
:1034E0009C000020AC000020980000201C0600205A
:1034F00004ED00E010B516E000F00EFA0C48C068CC
:10350000C468201D00F0BEF90A480068401E094941
:10351000086009480068401E0749086000F00EFA7C
:10352000204600F00BF8044800680028E4D110BDE4
:10353000D8080020900000208C00002010B5044620
:10354000206B00F00BFA204600F008FA10BD0000D6
:1035500030B54FF47053154800F007042CB1C01D6E
:1035600020F00700114C041B1B1B0246104C22606C
:1035700000240F4D6C60D018083820F007000D4C67
:10358000206000240B4D2D686C600A4D2D682C6066
:103590001146441A4C60074C24680C60064D4C6878
:1035A0002C60064D4C682C6030BD000000090020E6
:1035B000C0000020C8000020D0000020CC00002067
:1035C00000BFFFF797FF064800680128F9D94FF0C0
:1035D000805004490860BFF34F8FBFF36F8FF0E74F
:1035E0001C06002004ED00E02DE9FF5F80460E463A
:1035F0009146DDE90E7A109CA9F10100216B01EBE7
:10360000800B2BF0070B7EB1002507E0715D04F104
:1036100034004155705D00B902E06D1C102DF5D3EA
:1036200000BF002143200155202F00D31F27E76250
:10363000201D00F048F904F1180000F044F924615D
:10364000C7F12000A061646241465846039A00F029
:1036500007F92060BAF1000F01D0CAF80040BDE8B8
:10366000FF9F000010B5002407E004EB84010F4A1F
:1036700002EB810000F01AF9641C202CF5D30C48F1
:1036800000F014F90B4800F011F90B4800F00EF9A6
:103690000A4800F00BF90A4800F008F90448094903
:1036A000086004480849086010BD00001C0600209E
:1036B0009C080020B0080020C4080020D808002082
:1036C000EC080020840000208800002010B501468E
:1036D000164800E0006803688B42FBD3024643684B
:1036E00013448B4204D143684C6823444360014631
:1036F0000A464B6813440468A34211D10C4C03687A
:103700002468A34208D04B680468646823444B6073
:1037100003681B680B6005E0054B1B680B6001E04C
:1037200003680B60884200D0016010BDC00000201B
:10373000C800002009480068006808B9012000E0BE
:10374000002020B14FF0FF300549086005E0034834
:103750000068C06800680249086070478400002063
:10376000B000002000BF502080F31188BFF34F8FBE
:10377000BFF36F8F00BF00BFFEE700002DE9F047E9
:1037800005464FF0000900F0BBF93048006808B961
:10379000FFF7DEFE75B105F00700C0F11008C8F1B3
:1037A000FF30A84201D2012000E0002008B94544C2
:1037B00000E00025012000EBE570002841D0002D3D
:1037C0003FD02348006885423BD8224E30460468EB
:1037D00001E0264624686068A84202D220680028DA
:1037E000F7D11A48006884422BD0306800F10809EC
:1037F000206830606068401B102807D9671960682E
:10380000401B786065603846FFF760FF10496068CC
:103810000968081A0E490860084600680E490968D8
:10382000884203D20A4800680B490860606840F08B
:10383000004060600020206008480068401C074984
:10384000086000F015FB4846BDE8F087C80000207E
:10385000CC000020C0000020D0000020D4000020B8
:10386000001F4FF080730360001F21F0010303600D
:10387000001F034B036014380260203870470000BB
:103880006537000801460A69D1E901309860D1E93D
:10389000010358605068884201D188685060002058
:1038A00008611068401E10601068704700F1080140
:1038B00041604FF0FF31816000F10801C16001619A
:1038C00000210160704700210161704710B5024678
:1038D0000B685C1C0CB9106907E002F1080000E0FD
:1038E0004068446824689C42FAD944684C604C683B
:1038F000A160886041600A611468641C146010BD96
:1039000042684A6093688B6093685960916008616F
:1039100003685B1C0360704700BF502080F3118870
:10392000BFF34F8FBFF36F8F00BF03480068401C89
:103930000149086070470000DC000020064800686C
:10394000401E054908600846006820B9002080F341
:10395000118800BF00BF7047DC00002070B506462C
:103960003546E6B1083D2C466068C00FB8B1206806
:10397000A8B9606820F00040606000F0C1F8084914
:10398000606809680844064908602046FFF79EFE03
:1039900004480068401C0349086000F069FA70BDE3
:1039A000CC000020D800002000204FF0E02108616A
:1039B0008861024848610720086170473F1901008B
:1039C00070B50546FFF7A8FF15B92948006800E063
:1039D00028460446201DFFF755FF78B9E06A00EB42
:1039E0008000244951F8200040B994F82C1001209F
:1039F00088402149096881431F480160A06A18B1C5
:103A000004F11800FFF73EFF1C480068401C1B49EA
:103A1000086017480068844209D1211D1848FFF743
:103A20006FFF18480068401C1649086006E01648F9
:103A30000068401E14490860FFF77CFEFFF77EFF18
:103A40000B480068844202D02046FFF777FD0F48FC
:103A5000006858B106480068844207D14FF0805092
:103A60000B490860BFF34F8FBFF36F8F70BD00002D
:103A7000800000201C06002098000020AC000020E0
:103A8000D80800208C000020900000209C0000201E
:103A900004ED00E01CB5124800210B468022CDE960
:103AA000001010A1114800F097F80446012C14D121
:103AB00000BF502080F31188BFF34F8FBFF36F8F8B
:103AC00000BF4FF0FF300A49086001200949086033
:103AD00000200949086000F04BF8084800681CBD48
:103AE000B400002049444C4500000000C1350008E6
:103AF000B00000209C00002094000020B8000020AE
:103B000002480068401C014908607047BC00002062
:103B10001248006818B10120114908601DE000201A
:103B20000F4908600F480068B0FA80F0C0F11F012B
:103B300001EB81020C4B03EB820042685268426049
:103B400000F108024368934202D142685268426021
:103B50004268D268054B1A6000BF7047BC00002065
:103B6000A4000020980000201C06002080000020F7
:103B700010B50A48006840F470000849086008461B
:103B8000006840F070400860FFF70EFF0020044915
:103B90000860FCF7C7FA002010BD000020ED00E02F
:103BA000DC00002010B500BF502080F31188BFF367
:103BB0004F8FBFF36F8F00BF00F092F818B14FF036
:103BC00080500449086000BF002080F3118800BFC6
:103BD00010BD000004ED00E02DE9FF4F85B08046E8
:103BE00089461746DDE912ABB800FFF7C7FD064668
:103BF00076B14C20FFF7C2FD04462CB14C21204683
:103C0000FCF7E3FA266304E03046FFF7A7FE00E086
:103C100000247CB10020CDE900ABCDE902403A465A
:103C200049464046089BFFF7DFFC2046FFF7F0FBC4
:103C3000012501E04FF0FF35284609B0BDE8F08FBF
:103C40002DE9F047044688464FF00009FFF758FF7A
:103C500016480668206800EB08052068B04207D9BE
:103C60002068A8420BD9B54209D94FF0010906E0F6
:103C70002068A84201D8B54201D94FF0010925605A
:103C8000B9F1000F03D0A81B0021FFF761FB00F082
:103C9000EFF807463FB94FF0805005490860BFF381
:103CA0004F8FBFF36F8F4846BDE8F0879400002028
:103CB00004ED00E00549096809B9012005E004495F
:103CC000096809B9022000E0002070479C0000202C
:103CD000BC000020014908687047000094000020E3
:103CE0002DE9F04100275748006800287ED156484A
:103CF0000068451C544805608DB95448D0F80080D0
:103D000053480068514908605148C0F80080514844
:103D10000068401C4F490860FFF70CFD00BF4E488B
:103D20000068854276D300BF48480068006808B93B
:103D3000012000E0002020B14FF0FF30464908602C
:103D400067E042480068C068C4686668B54202D24D
:103D5000414806605DE06069D4E902128A60D4E9F6
:103D600002214A60211D42688A4201D1E168416016
:103D7000002262610168491E0160A06A98B1A06AD0
:103D8000D4E907128A60D4E907214A6004F11801D6
:103D900042688A4201D1216A41600022A262016820
:103DA000491E016000BF94F82C10012088402B4967
:103DB0000968084329490860E16A01EB8101284A42
:103DC00002EB81014868A0608268E260211D826880
:103DD00051608160E16A01EB8101214A02EB8102BD
:103DE0006261E16A01EB81011D4A00E022E052F8C4
:103DF0002110491CE26A02EB8202194B43F822109F
:103E00001849E06A0968C96A88428DD901278BE799
:103E100000E000BF13480068C06A00EB8000104952
:103E200051F82000012800D901270F48006800B18F
:103E3000012704E00D480068401C0C490860384622
:103E4000BDE8F081BC000020940000208400002028
:103E500088000020A8000020B0000020980000206A
:103E60001C06002080000020A4000020A0000020EC
:103E700070B500240026FFF74FFD4B480068401E38
:103E8000494908600846006800287DD14748006815
:103E9000002879D05BE04648C068C468A06AD4E9CD
:103EA00007128A60D4E907214A6004F118014268C8
:103EB0008A4201D1216A41600022A2620168491E42
:103EC00001606069D4E902128A60D4E902214A6083
:103ED000211D42688A4201D1E1684160002262618D
:103EE0000168491E016094F82C1001208840314976
:103EF000096808432F490860E16A01EB81012E4AF5
:103F000002EB81014868A0608268E260211D82683E
:103F100051608160E16A01EB8101274A02EB810275
:103F20006261E16A01EB8101234A52F82110491CC8
:103F3000E26A02EB8202204B43F822101F49E06A3A
:103F40000968C96A884202D301201D4908601848DF
:103F5000006808B9012000E0002000289BD00CB1C7
:103F6000FFF7E8FB1748056865B100BFFFF7B8FE2B
:103F700010B10120124908606D1E002DF6D10020FD
:103F8000104908600E4800E009E0006838B10126D9
:103F900030070D490860BFF34F8FBFF36F8FFFF7F6
:103FA000CDFC304670BD0000BC0000209000002019
:103FB000C4080020980000201C060020800000207B
:103FC000A4000020A000002004ED00E0000000009C
:103FD00000000000002F0000000007000700001490
:103FE0007F147F1400242A7F2A120062640813239E
:103FF00000364955225000000503000000001C2235
:104000004100000041221C000014083E0814000872
:10401000083E0808000000A0600000080808080822
:10402000000060600000002010080402003E5149BA
:10403000453E0000427F4000004261514946002158
:1040400041454B31001814127F1000274545453972
:10405000003C4A49493000017109050300364949CD
:10406000493600064949291E000036360000000086
:1040700056360000000814224100001414141414D1
:10408000000041221408000201510906003249597A
:10409000513E007C1211127C007F49494936003E96
:1040A00041414122007F4141221C007F4949494151
:1040B000007F09090901003E4149497A007F08084B
:1040C000087F0000417F4100002040413F01007F08
:1040D00008142241007F40404040007F020C027FD4
:1040E000007F0408107F003E4141413E007F0909E6
:1040F0000906003E4151215E007F0919294600460C
:10410000494949310001017F0101003F4040403FE2
:10411000001F2040201F003F4038403F006314082C
:104120001463000708700807006151494543000007
:104130007F41410000552A552A55000041417F002A
:10414000000402010204004040404040000001021F
:104150000400002054545478007F48444438003808
:104160004444442000384444487F00385454541890
:1041700000087E0901020018A4A4A47C007F0804A2
:1041800004780000447D4000004080847D00007F72
:10419000102844000000417F4000007C041804788F
:1041A000007C0804047800384444443800FC24248B
:1041B00024180018242418FC007C08040408004873
:1041C0005454542000043F444020003C4040207C94
:1041D000001C2040201C003C4030403C0044281083
:1041E0002844001CA0A0A07C004464544C44141437
:1041F000141414140000000000000000000000006F
:104200000000FC000000000002000000000C020C96
:10421000020000000000000090D0BCD0BC90000361
:10422000000300001824FE448C0003020702010072
:104230001824D8B04C80000300010201C038E438D3
:10424000E000010202010202080600000000000076
:1042500000000000000000F8040200000001020459
:10426000000204F800000004020100009060F86001
:1042700090000000010000002020FC202000000031
:10428000010000000000000000000806000000001F
:10429000202020202000000000000000000000007E
:1042A00000000002000000000080601C0200040307
:1042B00000000000F8040404F800010202020100FA
:1042C0000008FC00000000020302000018844424DF
:1042D000180003020202020008042424D80001028C
:1042E0000202010040B088FC8000000000030200D0
:1042F0003C242424C400010202020100F824242CDE
:10430000C0000102020201000C04E41C04000000D1
:1043100003000000D8242424D80001020202010076
:1043200038444444F8000003020201000000100079
:10433000000000000200000000002000000000005B
:104340000600000000205088040200000000010266
:1043500090909090900000000000000000020488FF
:1043600050200002010000001804C42418000000BE
:1043700002000000F804E494F800010202020200C6
:1043800000E09CF0800002030000030204FC2424EF
:10439000D800020302020100F80404040C00010228
:1043A0000202010004FC0404F800020302020100FE
:1043B00004FC24740C0002030202030004FC2474B5
:1043C0000C00020302000000F0080444CC4000018D
:1043D0000202010004FC2020FC040203000003028E
:1043E0000404FC040400020203020200000404FCB2
:1043F000040406040403000004FC24D00C0402039B
:104400000200030204FC0400000002030202020393
:10441000FC3CC03CFC0003000300030004FC30C46F
:10442000FC04020302000300F8040404F800010283
:104430000202010004FC2424180002030200000010
:10444000F8848404F80001020207050004FC2464D7
:104450009800020302000302182424448C00030283
:10446000020201000C04FC040C0000020302000024
:1044700004FC0000FC04000102020100047C80E056
:104480001C040000030000001CE03CE01C000003D2
:1044900000030000049C609C04000203000302006F
:1044A000041CE01C04000002030200000C84641CD5
:1044B00004000203020203000000FE0202000000EA
:1044C00007040400000E30C00000000000010200DC
:1044D000000202FE000000040407000000040204C1
:1044E00000000000000000000000000000000808BC
:1044F000080808080000020000000000000000009A
:104500000040A0A0C00000010202030204FC202021
:10451000C00000030202010000C020206000000172
:104520000202020000C02024FC000001020203027B
:1045300000C0A0A0C0000001020202000020F82478
:1045400024040002030202000040A0A06020000733
:104550000A0A0A0404FC2020C0000203020003022D
:104560000020E4000000000203020000000020E43C
:10457000000008080807000004FC80E02020020377
:10458000020003020404FC00000002020302020015
:10459000E020E020C00003000300030020E0202012
:1045A000C00002030200030200C02020C00000017E
:1045B0000202010020E02020C000080F0A020100D2
:1045C00000C02020E0000001020A0F0820E0402087
:1045D00020000203020000000060A0A020000002F2
:1045E000020203000020F820000000000102020087
:1045F00020E00020E00000010202030220E0208011
:1046000060200000030100006080E0806000000383
:10461000000300002060806020000203000302000D
:1046200020E0208060200808070100000020A06032
:104630002000000203020200000020DE0200000051
:1046400000070400000000FF00000000000F000051
:104650000002DE2000000004070000000201020446
:104660000402000000000000000000000000000044
:104670000000000000000000000000F80000000042
:10468000000000333000000000100C06100C060083
:10469000000000000000000040C07840C0784000EA
:1046A000043F04043F040400007088FC083000004C
:1046B000001820FF211E0000F008F000E0180000A4
:1046C00000211C031E211E0000F00888700000005D
:1046D0001E2123241927211010160E0000000000AF
:1046E0000000000000000000000000E018040200CC
:1046F000000000071820400000020418E00000003D
:104700000040201807000000404080F0804040003A
:104710000202010F01020200000000F00000000090
:104720000101011F01010100000000000000000064
:1047300080B07000000000000000000000000000D9
:104740000001010101010101000000000000000062
:1047500000303000000000000000000080601804FD
:10476000006018060100000000E010080810E000DA
:10477000000F102020100F00001010F800000000A3
:104780000020203F202000000070080808887000EA
:10479000003028242221300000300888884830006A
:1047A0000018202020110E000000C02010F800008A
:1047B00000070424243F240000F808888808080023
:1047C0000019212020110E0000E010888818000038
:1047D000000F112020110E0000380808C83808000A
:1047E0000000003F0000000000708808088870008A
:1047F000001C222121221C0000E010080810E0000B
:104800000000312222110F00000000C0C000000093
:1048100000000030300000000000008000000000B8
:1048200000008060000000000000804020100800B0
:104830000001020408102000404040404040400079
:104840000404040404040400000810204080000054
:104850000020100804020100007048080808F00059
:104860000000003036010000C030C828E810E00029
:104870000718272423140B000000C038E0000000B4
:10488000203C23020227382008F88888887000001E
:10489000203F202020110E00C030080808083800F2
:1048A000071820202010080008F808080810E00069
:1048B000203F202020100F0008F88888E80810000A
:1048C000203F20202320180008F88888E8081000DE
:1048D000203F200003000000C03008080838000016
:1048E00007182020221E020008F808000008F80817
:1048F000203F210101213F20000808F8080800009E
:104900000020203F2020000000000808F8080800D0
:10491000C08080807F00000008F888C02818080048
:10492000203F20012638200008F808000000000081
:10493000203F20202020300008F8F800F8F8080078
:10494000203F003F003F200008F830C00008F80872
:10495000203F200007183F00E01008080810E00082
:104960000F10202020100F0008F808080808F00099
:10497000203F210101010000E01008080810E000BC
:104980000F18242438504F0008F888888888700051
:10499000203F2000030C30200070880808083800F1
:1049A0000038202121221C00180808F808081800E7
:1049B0000000203F2000000008F808000008F80868
:1049C000001F202020201F000878880000C8380819
:1049D000000007380E010000F80800F80008F80091
:1049E000033C0700073C030008186880806818082B
:1049F00020302C03032C30200838C800C8380800A9
:104A00000000203F2000000010080808C8380800F7
:104A10002038262120201800000000FE020202009B
:104A20000000007F40404000000C30C0000000004B
:104A3000000000010638C00000020202FE00000073
:104A4000004040407F000000000004020202040019
:104A50000000000000000000000000000000000056
:104A6000808080808080808000020204000000003E
:104A70000000000000000000000080808080000036
:104A80000019242222223F2008F800808000000024
:104A9000003F112020110E000000008080800000E7
:104AA000000E112020201100000000808088F800F6
:104AB000000E112020103F20000080808080000028
:104AC000001F222222221300008080F0888888188C
:104AD0000020203F20200000000080808080800097
:104AE000006B94949493600008F80080808000002C
:104AF000203F210000203F20008098980000000007
:104B00000020203F20200000000000809898000036
:104B100000C08080807F000008F800008080800056
:104B2000203F24022D302000000808F8000000007B
:104B30000020203F20200000808080808080800036
:104B4000203F20003F20003F8080008080800000C8
:104B5000203F210000203F20000080808080000056
:104B6000001F202020201F00808000808000000087
:104B700080FFA12020110E000000008080808000B6
:104B8000000E112020A0FF808080800080808000A7
:104B900020203F21200001000000808080808000D4
:104BA0000033242424241900008080E08080000049
:104BB0000000001F20200000808000000080800096
:104BC000001F202020103F208080800000808080F7
:104BD00000010E3008060100808000800080808087
:104BE0000F300C030C300F000080800080808000AC
:104BF0000020312E0E3120008080800000808080D7
:104C000080818E7018060100008080808080800086
:104C10000021302C2221300000000000807C0202A4
:104C200000000000003F404000000000FF000000C6
:104C300000000000FF0000000002027C8000000075
:104C40000040403F00000000000601010202040491
:104C50000000000000000000000000000000000054
:104C60000000000000000000000000000000000044
:104C70000000000000000000000000000000000034
:104C800000F0F0F0000000000000000000017F01D3
:104C90000000000000000000001C1C1C00000000C0
:104CA00000008060301C8C60301C0C000000000094
:104CB00000000000000000000000000000000000F4
:104CC00000000000000000E00000000000E0000024
:104CD0000086E69F86868686E69F860000011F0185
:104CE000010101011F010100000080C06020F820C7
:104CF000E0C00000000003070C18FF70E181000015
:104D00000000070F10107F100F0700008060206068
:104D100080000000E02000000F3020309F70DC3762
:104D20001030C0000000100E030007181018070014
:104D30000000C02020E0C0000000000080E01F381C
:104D4000E88703C43C040000070F1810100B070D80
:104D50001010080000808C4C38000000000000009B
:104D60000000000000000000000000000000000043
:104D7000000000000000000000000000000080E0D3
:104D8000300804000000000000FEFF0100000000E9
:104D9000000000000000030F18204000000408304D
:104DA000E0800000000000000000000001FFFE00A5
:104DB00000000000004020180F0300000000000069
:104DC000000000000000C000000000000042666615
:104DD0003C18FF183C66664200000000000003001B
:104DE0000000000000000000000080000000000043
:104DF000001010101010FF10101010100000000014
:104E0000000003000000000000000000000000009F
:104E10000000000000000000000000000000000092
:104E200000808C4C380000000000000000000000F2
:104E30000000000000000000001010101010101002
:104E40001010100000000000000000000000000032
:104E50000000000000000000000000000000000052
:104E6000000000000000000000001C1C1C000000EE
:104E7000000000000000000000000000E0380C000E
:104E80000000000080701C03000000000060380E6D
:104E90000100000000000000000080C060202060D1
:104EA000C080000000FEFF010000000001FFFE00C6
:104EB0000001070E181010180E0701000000808076
:104EC00080C0E000000000000000000000FFFF00C4
:104ED0000000000000001010101F1F101010000034
:104EE0000080402020202060C080000000030300DC
:104EF000804020381F070000001C1A1918181818C5
:104F0000181F00000080C020202060C0800000002A
:104F1000000303001010182FE780000000070F1097
:104F2000101010180F070000000000000000C0E083
:104F3000F000000000C0B088868180FFFF80800004
:104F4000000000000010101F1F1010000000E060A3
:104F5000606060606060000000003F100808081892
:104F6000F0E0000000070B101010101C0F030000F1
:104F7000000080C040202020E0C0000000FCFF2195
:104F80001008080818F0E0000001070C18101010B5
:104F9000080F03000000C0E06060606060E0600037
:104FA000000003000000E0180700000000000000FF
:104FB000001F1F00000000000080C0602020202093
:104FC00060C080000087EF2C1818303068CF830055
:104FD00000070F0810101010180F07000000C0C0C5
:104FE00020202020C0800000001F3F604040402063
:104FF00010FFFE0000000C1C101010080F03000032
:1050000000000000000000000000000000000000A0
:10501000000E0E0E0000000000000000001C1C1C12
:105020000000000000000000000000000000000080
:1050300000000000000C0C00000000000000000058
:105040000058380000000000000000000000008050
:1050500040201000000010284482010000000000E1
:105060000000000000000102040810000000000021
:105070000000000000000000008484848484848494
:105080008484840000000000000000000000000094
:105090000000102040800000000000000000000020
:1050A00000000182442810000000100804020100E2
:1050B0000000000000C020201010101030E0C000E0
:1050C0000003030000F010080C07030000000000BC
:1050D0001C1C1C0000000000000000C040602020DC
:1050E0002040C00000FCFF01F00E03C1FE03807FE2
:1050F0000001070E08111110110904020000000040
:1051000080E0E000000000000000807C4340477F1A
:10511000F880000010181F1000000000131F1C1062
:1051200020E0E02020202060C080000000FFFF1071
:10513000101010182FE78000101F1F1010101010F3
:10514000180F0700000080C0402020202060E000F1
:1051500000FCFF0100000000000001000001070E3C
:10516000181010100804030020E0E0202020204048
:10517000C080000000FFFF000000000001FFFE00F3
:10518000101F1F10101018080E07010020E0E0206B
:10519000202020202060800000FFFF101010107CD5
:1051A00000000000101F1F10101010101018060033
:1051B00020E0E020202020206060800000FFFF1021
:1051C0001010107C00000100101F1F1000000000D4
:1051D00000000000000080C06020202040E00000AF
:1051E00000FCFF0100004040C0C140400001070E2C
:1051F000181010100F0F000020E0E0200000000049
:1052000020E0E02000FFFF101010101010FFFF0042
:10521000101F1F1000000000101F1F100000202092
:1052200020E0E020202000000000000000FFFF0040
:105230000000000000001010101F1F1010100000D0
:1052400000000000202020E0E020202000000000DE
:10525000000000FFFF0000000060E0808080C07F51
:105260003F00000020E0E020000020A0602020009F
:1052700000FFFF30187CE3C000000000101F1F106B
:10528000000001131F1C181020E0E02000000000A7
:105290000000000000FFFF00000000000000000010
:1052A000101F1F10101010101018060020E0E0E072
:1052B00000000000E0E0E02000FF013FFEC0E01E33
:1052C00001FFFF00101F1000031F0300101F1F101D
:1052D00020E0E0C0000000000020E02000FF00030C
:1052E000071C78E08000FF00101F10000000000085
:1052F000030F1F00000080C060202060C0800000FD
:1053000000FEFF010000000000FFFE000001070E8C
:10531000181010180C07010020E0E02020202020A9
:1053200060C0800000FFFF2020202020301F0F00E1
:10533000101F1F100000000000000000000080C0CF
:1053400060202060C080000000FEFF01000000001F
:1053500000FFFE000001070E1111133C7C672100C5
:1053600020E0E0202020202060C0800000FFFF100F
:105370001030F0D0080F0700101F1F1000000003AE
:105380000F1C10100080C060202020204040E00052
:1053900000070F0C1818303060E08100001F0C0867
:1053A00010101010180F07008060202020E0E0206F
:1053B000202060800100000000FFFF0000000001CD
:1053C00000000000101F1F100000000020E0E0207F
:1053D000000000000020E02000FFFF0000000000AF
:1053E0000000FF0000070F18101010101008070031
:1053F0002060E0E02000000020E060200000077F47
:10540000F88000807C03000000000000071F1C07DC
:105410000000000020E0E02000E0E0200020E0208C
:105420000007FFF8E01FFFFCE01F00000000031F63
:105430000300011F03000000002060E0A000002026
:10544000E0602000000000038F7CF8C6010000002F
:105450000010181E130001171F1810002060E0E054
:105460002000000020E06020000001073EF8E01866
:105470000700000000000010101F1F1010000000A7
:1054800000806020202020A0E0E02000000000003C
:10549000C0F03E0F0300000000101C1F171010107A
:1054A000101806000000000000FC040404040400BE
:1054B0000000000000FF00000000000000000000ED
:1054C000007F404040404000000010E0000000002D
:1054D0000000000000000000031C608000000000CD
:1054E00000000000000000030C70800000000404B5
:1054F000040404FC0000000000000000000000FFA5
:1055000000000000000040404040407F00000000DC
:1055100000000010080C040C08100000000000003F
:10552000000000000000000000000000000000007B
:10553000000000000000000000000000000000006B
:10554000000000000000000000000000808080805B
:105550008080808080808080000000040408080033
:10556000000000000000000000000000000000003B
:10557000000000000000000000000000000000002B
:105580000000000000000000000098D844642424BB
:10559000FCF80000000F1F18101010081F1F101833
:1055A0000020E0F000000000000000000000FFFF0D
:1055B000180804040CF8F00000001F0F1810101059
:1055C000180F0300000000000000000000000000B1
:1055D00000E0F8180404043C3800000000030F0C3D
:1055E000101010100806000000000000000000204D
:1055F000E0F0000000E0F81C04040408FFFF0000D5
:1056000000030F18101010081F0F08000000000002
:1056100000000000000000000000E0F8484444449E
:105620004C7870000000030F0C18101010080400D4
:105630000000000080C0602020E0C00000040404DE
:10564000FFFF040404040000000010101F1F1010CE
:10565000100000000000000000000000000000003A
:10566000000070F88C04048CF874040C007076CF81
:105670008D8D8D89C87870000020E0F0000000005A
:10568000000000000000FFFF08040404FCF8000014
:1056900000101F1F100000101F1F1000000000004E
:1056A00000606000000000000000040404FCFC0036
:1056B0000000000000001010101F1F10101000004C
:1056C000000000000000006060000000000000001A
:1056D000040404FCFC0000000000C0C08080C07F07
:1056E0003F0000000020E0F000000000000000008B
:1056F0000000FFFF80C0F41C0404000000101F1F06
:105700001100031F1C1010000000202020E0F000FA
:10571000000000000000000000FFFF00000000008B
:1057200000001010101F1F101010000000000000DB
:10573000000000000000000004FCFC0804FCFC0861
:1057400004FCFC00101F1F10001F1F10001F1F1063
:105750000000000000000000000000000004FCFC4D
:1057600008080404FCF8000000101F1F10000010BF
:105770001F1F1000000000000000000000000000DB
:1057800000E0F0180C04040C18F0E00000030F0C0B
:10579000101010100C0F03000000000000000000AB
:1057A000000000000004FCFC080404040CF8F000F5
:1057B0000080FFFF889010101C0F03000000000005
:1057C000000000000000000000E0F81C04040408D1
:1057D000F8FC000000030F1810109088FFFF8000F5
:1057E000000000000000000000000000040404FCB1
:1057F000FC100804040C0C001010101F1F101010D7
:105800000000000000000000000000000000000098
:1058100000003078CCC48484840C1C0000001E1866
:1058200010101011190F06000000000000C0000049
:105830000000000000040404FFFF04040400000052
:10584000000000000F1F1010100C000000000000EE
:1058500000000000000000000004FCFE0000000446
:10586000FCFE000000000F1F181010081F0F08009A
:1058700000000000000000000000000000040C3CDC
:10588000FCC40000C43C0C0400000000010F1E0E0C
:105890000100000000000000000000000000000007
:1058A000043CFCC400E47CFC84807C040000071FF2
:1058B000070000071F0700000000000000000000B4
:1058C000000000000004041C7CE4C0341C0404003C
:1058D0000010101C1601131F1C18100000000000FF
:1058E000000000000000000000040C3CFCC400C4E8
:1058F0003C0404000000C080C1370E01000000001D
:1059000000000000000000000000000000001C0477
:1059100004C4F47C1C0400000000101C1F171110AC
:1059200010180E0000000000000000F80C04000039
:1059300000000000001028EF000000000000000040
:105940000000003F60400000000000000000FF0079
:1059500000000000000000000000FF000000000048
:10596000000000000000FF00000000000000040C28
:10597000F80000000000000000000000EF28100008
:1059800000000000000040603F0000000000000038
:105990000018060202040810202030080000000051
:1059A00000000000000000000000000000000000F7
:1059B000000000000000F010101010FF1010101078
:1059C000F000000000000F04040404FF04040404B9
:1059D0000F0000004040405F555555755555555FC7
:1059E000404040000040200F094989790909090F0A
:1059F0002040000000FE02424ACA4A4ACA4A4A42BD
:105A000002FE000000FF40504C4340404F50505CAD
:105A100040FF00000000F888888888FF8888888810
:105A2000F800000000001F080808087F88888888A0
:105A30009F80F00080828282828282E2A2928A86A5
:105A400082808000000000000040807F0000000095
:105A500000000000101010FF109008888888FF8850
:105A6000888808000444827F01808040432C1028ED
:105A7000468180000010101010D030FF30D0121C72
:105A80001010000010080402010000FF00000102D5
:105A90000408100004040484E43C2724242424E49F
:105AA0000404040004020100FF0909090949897F6F
:105AB0000000000000FE225A8600FE92929292920E
:105AC000FE00000000FF04080700FF4020030C1444
:105AD0002241400000804020180680000718204026
